S012000072765F6F6666696369616C2E7331395E
S20500000013E7
S20500000100F9
S20500000200F8
S20500000300F7
S20500000413E3
S20500000500F5
S20500000600F4
S20500000700F3
S20500000813DF
S20500000900F1
S20500000A00F0
S20500000B00EF
S20500000C13DB
S20500000D00ED
S20500000E00EC
S20500000F00EB
S20500001013D7
S20500001100E9
S20500001200E8
S20500001300E7
S20500001413D3
S20500001500E5
S20500001600E4
S20500001700E3
S20500001813CF
S20500001900E1
S20500001A00E0
S20500001B00DF
S20500001C13CB
S20500001D00DD
S20500001E00DC
S20500001F00DB
S20500002013C7
S20500002100D9
S20500002200D8
S20500002300D7
S20500002413C3
S20500002500D5
S20500002600D4
S20500002700D3
S20500002813BF
S20500002900D1
S20500002A00D0
S20500002B00CF
S20500002C13BB
S20500002D00CD
S20500002E00CC
S20500002F00CB
S20500003013B7
S20500003100C9
S20500003200C8
S20500003300C7
S20500003413B3
S20500003500C5
S20500003600C4
S20500003700C3
S20500003813AF
S20500003900C1
S20500003A00C0
S20500003B00BF
S20500003C13AB
S20500003D00BD
S20500003E00BC
S20500003F00BB
S20500004013A7
S20500004100B9
S20500004200B8
S20500004300B7
S20500004413A3
S20500004500B5
S20500004600B4
S20500004700B3
S205000048139F
S20500004900B1
S20500004A00B0
S20500004B00AF
S20500004C139B
S20500004D00AD
S20500004E00AC
S20500004F00AB
S2050000501397
S20500005100A9
S20500005200A8
S20500005300A7
S2050000541393
S20500005500A5
S20500005600A4
S20500005700A3
S205000058138F
S20500005900A1
S20500005A00A0
S20500005B009F
S20500005C6F2F
S20500005D405D
S20500005E900C
S20500005F4B50
S2050000606F2B
S2050000614059
S205000062D0C8
S2050000634C4B
S2050000646F27
S2050000654055
S2050000661084
S2050000674E45
S2050000686F23
S2050000694051
S20500006A5040
S20500006B4F40
S20500006C6F1F
S20500006D404D
S20500006E90FC
S20500006F503B
S2050000706F1B
S2050000714049
S2050000725038
S2050000735334
S2050000746F17
S2050000754045
S20500007690F4
S2050000775132
S2050000786F13
S2050000794041
S20500007AD0B0
S20500007B552A
S20500007C6F0F
S20500007D403D
S20500007E106C
S20500007F5427
S2050000806F0B
S2050000814039
S2050000821068
S2050000833C3B
S2050000846F07
S2050000854035
S20500008690E4
S205000087561D
S2050000886F03
S2050000894031
S20500008AD0A0
S20500008B5718
S205000090F377
S2050000912049
S2050000924028
S205000093F176
S20500009493D3
S205000095F075
S205000096F074
S2050000970162
S20500009863FF
S20500009984DD
S20500009A0060
S20500009B005F
S20500009C6FEF
S20500009D401D
S20500009ED08C
S20500009F3724
S2050000A093C7
S2050000A10257
S2050000A21048
S2050000A30057
S2050000A41343
S2050000A50352
S2050000A61044
S2050000A70053
S2050000A863EF
S2050000A994BD
S2050000AA62EE
S2050000AB004F
S2050000AC63EB
S2050000AD94B9
S2050000AE024A
S2050000AF004B
S2050000B0004A
S2050000B10049
S2050000B20048
S2050000B30047
S2050000B46FD7
S2050000B50045
S2050000B6C084
S2050000B70142
S2050000B873CF
S2050000B969D8
S2050000BA6DD3
S2050000BB70CF
S2050000BC6CD2
S2050000BD65D8
S2050000BE2E0E
S2050000BF53E8
S2050000C0003A
S2050000C10039
S2050000C20038
S2050000C30037
S2050000C40036
S2050000C50035
S2050000C60034
S2050000C70033
S2050000C80032
S2050000C90031
S2050000CA0030
S2050000CB002F
S2050000CC002E
S2050000CD002D
S2050000CE002C
S2050000CF002B
S2050000D0F337
S2050000D12009
S2050000D240E8
S2050000D3F136
S2050000D49393
S2050000D5F035
S2050000D6F034
S2050000D70122
S2050000D8938F
S2050000D9829F
S2050000DA1010
S2050000DB001F
S2050000DC938B
S2050000DD928B
S2050000DEB26A
S2050000DF001B
S2050000E037E3
S2050000E141D8
S2050000E21008
S2050000E30017
S2050000E433E3
S2050000E50114
S2050000E651C3
S2050000E70013
S2050000E813FF
S2050000E90110
S2050000EAC14F
S2050000EBFF10
S2050000EC937B
S2050000ED020B
S2050000EE808C
S2050000EF0B00
S2050000F023E7
S2050000F122E7
S2050000F251B7
S2050000F30007
S2050000F4F313
S2050000F520E5
S2050000F640C4
S2050000F7F112
S2050000F8936F
S2050000F9F011
S2050000FAF010
S2050000FB01FE
S2050000FC936B
S2050000FD827B
S2050000FE10EC
S2050000FF00FB
S2050001009366
S2050001019266
S205000102B245
S20500010300F6
S20500010437BE
S20500010541B3
S20500010610E3
S20500010700F2
S20500010833BE
S20500010901EF
S20500010A519E
S20500010B00EE
S20500010C13DA
S20500010D01EB
S20500010EC12A
S20500010FFFEB
S20500011013D6
S20500011105E3
S2050001120ED9
S20500011300E6
S2050001148362
S20500011525BF
S20500011641A2
S20500011700E2
S205000118EFF2
S20500011940A0
S20500011A508F
S20500011B6876
S20500011C6F6E
S20500011D00DC
S20500011E00DB
S20500011F01D9
S2050001206178
S2050001216474
S2050001226473
S2050001232EA8
S2050001245382
S20500012500D4
S20500012600D3
S20500012700D2
S20500012800D1
S20500012900D0
S20500012A00CF
S20500012B00CE
S20500012CF3DA
S20500012D20AC
S20500012E408B
S20500012FF1D9
S2050001309336
S205000131F0D8
S205000132F0D7
S20500013301C5
S2050001349332
S2050001358242
S20500013610B3
S20500013700C2
S205000138932E
S205000139922E
S20500013AB20D
S20500013B00BE
S20500013C3786
S20500013D417B
S20500013E10AB
S20500013F00BA
S2050001403386
S20500014101B7
S2050001425166
S20500014300B6
S20500014413A2
S20500014501B3
S205000146C1F2
S205000147FFB3
S205000148931E
S20500014902AE
S20500014A00AF
S20500014B129C
S20500014C238A
S20500014D228A
S20500014E515A
S20500014F00AA
S2050001509316
S20500015100A8
S20500015200A7
S20500015300A6
S2050001541392
S20500015501A3
S20500015600A3
S20500015700A2
S205000158B3EE
S205000159811F
S20500015A207F
S20500015B009E
S20500015C930A
S20500015D0E8E
S20500015E009B
S20500015F009A
S2050001601386
S2050001610E8A
S2050001622077
S2050001630096
S2050001646332
S20500016596FE
S205000166D1C2
S2050001674D45
S20500016893FE
S2050001690090
S20500016A107F
S20500016B008E
S20500016C137A
S20500016D018B
S20500016E107B
S20500016F008A
S205000170B3D6
S2050001718107
S2050001722067
S2050001730086
S20500017493F2
S2050001750E76
S2050001762063
S2050001770082
S205000178136E
S2050001790E72
S20500017A304F
S20500017B007E
S20500017C631A
S20500017D9AE2
S20500017ED1AA
S20500017F4B2F
S20500018093E6
S2050001810078
S2050001823047
S2050001830076
S2050001841362
S2050001850173
S2050001867003
S2050001870072
S205000188B3BE
S20500018981EF
S20500018A204F
S20500018B006E
S20500018C93DA
S20500018D0E5E
S20500018EA0CB
S20500018F006A
S2050001901356
S2050001910E5A
S2050001924027
S2050001930066
S2050001946302
S2050001959EC6
S205000196D192
S2050001974919
S20500019893CE
S2050001990060
S20500019A005F
S20500019B005E
S20500019C3726
S20500019D81DB
S20500019EFF5C
S20500019FFF5B
S2050001A0B3A6
S2050001A181D7
S2050001A22037
S2050001A30056
S2050001A4B79E
S2050001A58EC6
S2050001A6FF54
S2050001A7FF53
S2050001A8133E
S2050001A90E42
S2050001AA50FF
S2050001AB004E
S2050001AC63EA
S2050001AD92BA
S2050001AED17A
S2050001AF4901
S2050001B0B792
S2050001B10048
S2050001B20047
S2050001B380C6
S2050001B41332
S2050001B50143
S2050001B60043
S2050001B70042
S2050001B8B38E
S2050001B981BF
S2050001BA201F
S2050001BB003E
S2050001BCB786
S2050001BD0E2E
S2050001BE003B
S2050001BF80BA
S2050001C01326
S2050001C10E2A
S2050001C260D7
S2050001C30036
S2050001C463D2
S2050001C5969E
S2050001C6D162
S2050001C747EB
S2050001C8B77A
S2050001C90030
S2050001CA002F
S2050001CB80AE
S2050001CC37F6
S2050001CD81AB
S2050001CEFF2C
S2050001CFFF2B
S2050001D0B376
S2050001D181A7
S2050001D22007
S2050001D30026
S2050001D4B76E
S2050001D58E96
S2050001D6FF24
S2050001D77FA3
S2050001D8130E
S2050001D90E12
S2050001DA70AF
S2050001DB001E
S2050001DC63BA
S2050001DD9A82
S2050001DED14A
S2050001DF45D5
S2050001E09386
S2050001E10018
S2050001E20017
S2050001E30016
S2050001E437DE
S2050001E58193
S2050001E60013
S2050001E70012
S2050001E813FE
S2050001E9010F
S2050001EAF11E
S2050001EBFF0F
S2050001ECB35A
S2050001ED818B
S2050001EE20EB
S2050001EF000A
S2050001F0B752
S2050001F18E7A
S2050001F20007
S2050001F30006
S2050001F49372
S2050001F58E76
S2050001F6FE05
S2050001F7FF03
S2050001F813EE
S2050001F90EF2
S2050001FA807F
S2050001FB00FE
S2050001FC639A
S2050001FD9A62
S2050001FED12A
S2050001FF43B7
S205000200B741
S20500020100F7
S20500020200F6
S2050002038075
S2050002049361
S2050002058073
S205000206F002
S205000207FFF2
S20500020813DD
S20500020901EE
S20500020A00EE
S20500020B00ED
S20500020CB339
S20500020D816A
S20500020E20CA
S20500020F00E9
S205000210B731
S2050002110ED9
S20500021200E6
S2050002138065
S2050002149351
S2050002158E55
S205000216FEE4
S205000217FFE2
S20500021813CD
S2050002190ED1
S20500021A904E
S20500021B00DD
S20500021C6379
S20500021D9A41
S20500021ED109
S20500021F4198
S205000220B721
S20500022100D7
S20500022200D6
S2050002238055
S2050002249341
S2050002258053
S205000226F0E2
S205000227FFD2
S2050002283799
S205000229814E
S20500022A00CE
S20500022B00CD
S20500022C13B9
S20500022D01CA
S20500022EF1D9
S20500022FFFCA
S205000230B315
S2050002318146
S20500023220A6
S20500023300C5
S205000234B70D
S2050002358E35
S20500023600C2
S2050002378041
S205000238932D
S2050002398E31
S20500023AEED0
S20500023BFFBE
S20500023C13A9
S20500023D0EAD
S20500023EA01A
S20500023F00B9
S2050002406355
S205000241981F
S205000242D1E5
S2050002433F76
S205000244B7FD
S20500024500B3
S20500024600B2
S2050002478031
S2050002483779
S205000249812E
S20500024A00AE
S20500024B00AD
S20500024C1399
S20500024D01AA
S20500024EF1B9
S20500024FFFAA
S205000250B3F5
S2050002518126
S2050002522086
S20500025300A5
S205000254B7ED
S2050002558E15
S20500025600A2
S2050002578021
S205000258930D
S2050002598E11
S20500025AFEA0
S20500025BFF9E
S20500025C1389
S20500025D0E8D
S20500025EB0EA
S20500025F0099
S2050002606335
S20500026198FF
S205000262D1C5
S2050002633D58
S205000264B7DD
S2050002650093
S2050002660092
S2050002678011
S20500026893FD
S205000269800F
S20500026AF09E
S20500026BFF8E
S20500026C3755
S20500026D810A
S20500026EFF8B
S20500026FFF8A
S205000270B3D5
S2050002718106
S2050002722066
S2050002730085
S205000274B7CD
S2050002758EF5
S205000276FF83
S2050002777F02
S20500027893ED
S2050002798EF1
S20500027AFE80
S20500027BFF7E
S20500027C1369
S20500027D0E6D
S20500027EC0BA
S20500027F0079
S2050002806315
S20500028198DF
S205000282D1A5
S2050002833B3A
S20500028493E1
S2050002850073
S2050002860072
S2050002870071
S205000288135D
S205000289016E
S20500028AF07E
S20500028BFF6E
S20500028CB3B9
S20500028D81EA
S20500028E204A
S20500028F0069
S20500029093D5
S2050002910E59
S205000292F076
S205000293FF66
S2050002941351
S2050002950E55
S205000296D092
S2050002970061
S20500029863FD
S2050002999CC3
S20500029AD18D
S20500029B3924
S20500029C93C9
S20500029D005B
S20500029EF06A
S20500029FFF5A
S2050002A01345
S2050002A10156
S2050002A21046
S2050002A30055
S2050002A4B3A1
S2050002A581D2
S2050002A62032
S2050002A70051
S2050002A893BD
S2050002A90E41
S2050002AA004E
S2050002AB004D
S2050002AC1339
S2050002AD0E3D
S2050002AEE06A
S2050002AF0049
S2050002B063E5
S2050002B190B7
S2050002B2D175
S2050002B3390C
S2050002B493B1
S2050002B50043
S2050002B6F052
S2050002B7FF42
S2050002B8132D
S2050002B9013E
S2050002BAF04E
S2050002BBFF3E
S2050002BCB389
S2050002BD81BA
S2050002BE201A
S2050002BF0039
S2050002C093A5
S2050002C10E29
S2050002C2E056
S2050002C3FF36
S2050002C41321
S2050002C50E25
S2050002C6F042
S2050002C70031
S2050002C863CD
S2050002C9949B
S2050002CAD15D
S2050002CB37F6
S2050002CC9399
S2050002CD002B
S2050002CE101A
S2050002CF0029
S2050002D037F1
S2050002D10126
S2050002D20026
S2050002D380A5
S2050002D41311
S2050002D50122
S2050002D6F131
S2050002D7FF22
S2050002D8B36D
S2050002D9819E
S2050002DA20FE
S2050002DB001D
S2050002DCB765
S2050002DD0E0D
S2050002DE001A
S2050002DF8099
S2050002E01305
S2050002E10E09
S2050002E20016
S2050002E30114
S2050002E463B1
S2050002E5967D
S2050002E6D141
S2050002E735DC
S2050002E8937D
S2050002E9000F
S2050002EAD03E
S2050002EB000D
S2050002EC13F9
S2050002ED010A
S2050002EEB05A
S2050002EF0009
S2050002F0B355
S2050002F18087
S2050002F220E6
S2050002F30005
S2050002F49371
S2050002F50EF5
S2050002F68082
S2050002F70100
S2050002F813ED
S2050002F90EF1
S2050002FA10EE
S2050002FB01FC
S2050002FC6399
S2050002FD9A61
S2050002FED02A
S2050002FF33C6
S2050003009364
S20500030100F6
S205000302E015
S20500030300F4
S20500030413E0
S20500030501F1
S205000306B041
S20500030700F0
S20500030833BC
S205000309816D
S20500030A20CD
S20500030B00EC
S20500030C9358
S20500030D0EDC
S20500030E9059
S20500030F01E7
S20500031013D4
S2050003110ED8
S20500031220C5
S20500031301E3
S2050003146380
S2050003151EC4
S205000316D110
S20500031731AF
S205000318934C
S20500031900DE
S20500031AD00D
S20500031B00DC
S20500031CB328
S20500031D805A
S20500031E10C9
S20500031F00D8
S2050003209344
S2050003210EC8
S205000322A035
S20500032301D3
S20500032413C0
S2050003250EC4
S20500032630A1
S20500032701CF
S205000328636C
S205000329943A
S20500032AD0FD
S20500032B319B
S20500032C13B8
S20500032D02C8
S20500032E00C9
S20500032F00C8
S2050003309334
S20500033100C6
S205000332D0F5
S20500033300C4
S20500033413B0
S20500033501C1
S205000336B011
S20500033700C0
S205000338B30C
S205000339813D
S20500033A209D
S20500033B00BC
S20500033C13A8
S20500033D8337
S20500033E01B8
S20500033F00B8
S20500034013A4
S20500034102B4
S20500034212A3
S20500034300B4
S2050003449320
S20500034502B0
S2050003462091
S20500034700B0
S205000348E3CC
S205000349149A
S20500034A525B
S20500034BFEAE
S20500034C9318
S20500034D0E9C
S20500034E8029
S20500034F01A7
S2050003501394
S2050003510E98
S2050003524065
S20500035301A3
S2050003546340
S2050003551E84
S205000356D3CE
S2050003572D73
S205000358138C
S205000359029C
S20500035A009D
S20500035B009C
S20500035C9308
S20500035D009A
S20500035EE0B9
S20500035F0098
S2050003601384
S2050003610195
S205000362B0E5
S2050003630094
S205000364B3E0
S2050003658111
S2050003662071
S2050003670090
S205000368137C
S205000369008E
S20500036A008D
S20500036B008C
S20500036C1378
S20500036D8307
S20500036E0188
S20500036F0088
S2050003701374
S2050003710284
S2050003721273
S2050003730084
S20500037493F0
S2050003750280
S2050003762061
S2050003770080
S205000378E39C
S205000379126C
S20500037A522B
S20500037BFE7E
S20500037C93E8
S20500037D0E6C
S20500037E90E9
S20500037F0177
S2050003801364
S2050003810E68
S2050003825025
S2050003830173
S2050003846310
S205000385165C
S205000386D39E
S2050003872B45
S205000388135C
S205000389026C
S20500038A006D
S20500038B006C
S20500038C93D8
S20500038D006A
S20500038EF079
S20500038F0068
S2050003901354
S2050003910165
S205000392B0B5
S2050003930064
S205000394B3B0
S20500039581E1
S2050003962041
S2050003970060
S205000398134C
S205000399005E
S20500039A005D
S20500039B005C
S20500039C1348
S20500039D005A
S20500039E0059
S20500039F0058
S2050003A01344
S2050003A183D3
S2050003A20154
S2050003A30054
S2050003A41340
S2050003A50250
S2050003A6123F
S2050003A70050
S2050003A893BC
S2050003A9024C
S2050003AA202D
S2050003AB004C
S2050003ACE368
S2050003AD103A
S2050003AE52F7
S2050003AFFE4A
S2050003B093B4
S2050003B10E38
S2050003B2A0A5
S2050003B30143
S2050003B41330
S2050003B50E34
S2050003B660E1
S2050003B7013F
S2050003B863DC
S2050003B91C22
S2050003BAD36A
S2050003BB2715
S2050003BC1328
S2050003BD0238
S2050003BE0039
S2050003BF0038
S2050003C093A4
S2050003C10036
S2050003C2D065
S2050003C30034
S2050003C41320
S2050003C50131
S2050003C6B081
S2050003C70030
S2050003C8B37C
S2050003C981AD
S2050003CA200D
S2050003CB002C
S2050003CC1318
S2050003CD0228
S2050003CE1217
S2050003CF0028
S2050003D09394
S2050003D10224
S2050003D22005
S2050003D30024
S2050003D4E340
S2050003D5160C
S2050003D652CF
S2050003D7FE22
S2050003D8938C
S2050003D90E10
S2050003DA809D
S2050003DB011B
S2050003DC1308
S2050003DD0E0C
S2050003DE70A9
S2050003DF0117
S2050003E063B4
S2050003E1987E
S2050003E2D144
S2050003E325EF
S2050003E41300
S2050003E50210
S2050003E60011
S2050003E70010
S2050003E8937C
S2050003E9000E
S2050003EAE02D
S2050003EB000C
S2050003EC13F8
S2050003ED0109
S2050003EEB059
S2050003EF0008
S2050003F013F4
S2050003F10006
S2050003F20005
S2050003F30004
S2050003F4B350
S2050003F58181
S2050003F620E1
S2050003F70000
S2050003F813EC
S2050003F902FC
S2050003FA12EB
S2050003FB00FC
S2050003FC9368
S2050003FD02F8
S2050003FE20D9
S2050003FF00F8
S205000400E313
S20500040114E1
S20500040252A2
S205000403FEF5
S205000404935F
S2050004050EE3
S2050004069060
S20500040701EE
S20500040813DB
S2050004090EDF
S20500040A806C
S20500040B01EA
S20500040C6387
S20500040D9257
S20500040ED117
S20500040F23C4
S20500041013D3
S20500041102E3
S20500041200E4
S20500041300E3
S205000414934F
S20500041500E1
S205000416F0F0
S20500041700DF
S20500041813CB
S20500041901DC
S20500041AB02C
S20500041B00DB
S20500041C13C7
S20500041D00D9
S20500041E00D8
S20500041F00D7
S20500042013C3
S20500042100D5
S20500042200D4
S20500042300D3
S205000424B31F
S2050004258150
S20500042620B0
S20500042700CF
S20500042813BB
S20500042902CB
S20500042A12BA
S20500042B00CB
S20500042C9337
S20500042D02C7
S20500042E20A8
S20500042F00C7
S205000430E3E3
S20500043112B3
S2050004325272
S205000433FEC5
S205000434932F
S2050004350EB3
S205000436A020
S20500043701BE
S20500043813AB
S2050004390EAF
S20500043A902C
S20500043B01BA
S20500043C6357
S20500043D9A1F
S20500043ED1E7
S20500043F1F98
S20500044013A3
S20500044102B3
S20500044200B4
S20500044300B3
S205000444931F
S20500044500B1
S205000446D0E0
S20500044700AF
S205000448139B
S20500044900AD
S20500044A00AC
S20500044B00AB
S20500044C1397
S20500044D01A8
S20500044EB0F8
S20500044F00A7
S205000450B3F3
S2050004518124
S2050004522084
S20500045300A3
S205000454138F
S205000455029F
S205000456128E
S205000457009F
S205000458930B
S205000459029B
S20500045A207C
S20500045B009B
S20500045CE3B7
S20500045D1485
S20500045E5246
S20500045FFE99
S2050004609303
S2050004610E87
S2050004628014
S2050004630192
S205000464137F
S2050004650E83
S205000466A0F0
S205000467018E
S205000468632B
S20500046994F9
S20500046AD1BB
S20500046B1D6E
S20500046C1377
S20500046D0287
S20500046E0088
S20500046F0087
S20500047093F3
S2050004710085
S205000472E0A4
S2050004730083
S205000474136F
S2050004750081
S2050004760080
S205000477007F
S205000478136B
S205000479017C
S20500047AB0CC
S20500047B007B
S20500047C1367
S20500047D0079
S20500047E0078
S20500047F0077
S205000480B3C3
S20500048181F4
S2050004822054
S2050004830073
S205000484135F
S205000485026F
S205000486125E
S205000487006F
S20500048893DB
S205000489026B
S20500048A204C
S20500048B006B
S20500048CE387
S20500048D1257
S20500048E5216
S20500048FFE69
S20500049093D3
S2050004910E57
S20500049290D4
S2050004930162
S205000494134F
S2050004950E53
S205000496B0B0
S205000497015E
S20500049863FB
S2050004999CC1
S20500049AD18B
S20500049B1942
S20500049C1347
S20500049D0257
S20500049E0058
S20500049F0057
S2050004A093C3
S2050004A10055
S2050004A2F064
S2050004A30053
S2050004A4133F
S2050004A50051
S2050004A60050
S2050004A7004F
S2050004A8133B
S2050004A9004D
S2050004AA004C
S2050004AB004B
S2050004AC1337
S2050004AD0148
S2050004AEB098
S2050004AF0047
S2050004B0B393
S2050004B181C4
S2050004B22024
S2050004B30043
S2050004B4132F
S2050004B5023F
S2050004B6122E
S2050004B7003F
S2050004B893AB
S2050004B9023B
S2050004BA201C
S2050004BB003B
S2050004BCE357
S2050004BD1227
S2050004BE52E6
S2050004BFFE39
S2050004C093A3
S2050004C10E27
S2050004C2A094
S2050004C30132
S2050004C4131F
S2050004C50E23
S2050004C6C070
S2050004C7012E
S2050004C863CB
S2050004C99499
S2050004CAD15B
S2050004CB1714
S2050004CC1317
S2050004CD0227
S2050004CE0028
S2050004CF0027
S2050004D01313
S2050004D10124
S2050004D2B074
S2050004D30023
S2050004D4938F
S2050004D50021
S2050004D6D050
S2050004D7001F
S2050004D8B36B
S2050004D9819C
S2050004DA20FC
S2050004DB001B
S2050004DC1307
S2050004DD0217
S2050004DE1206
S2050004DF0017
S2050004E09383
S2050004E10213
S2050004E220F4
S2050004E30013
S2050004E4E32F
S2050004E516FB
S2050004E652BE
S2050004E7FE11
S2050004E8937B
S2050004E90EFF
S2050004EA808C
S2050004EB010A
S2050004EC13F7
S2050004ED0EFB
S2050004EED038
S2050004EF0106
S2050004F063A3
S2050004F19075
S2050004F2D133
S2050004F315EE
S2050004F413EF
S2050004F502FF
S2050004F60000
S2050004F700FF
S2050004F813EB
S2050004F901FC
S2050004FAB04C
S2050004FB00FB
S2050004FC9367
S2050004FD00F9
S2050004FEE018
S2050004FF00F7
S20500050013E2
S20500050100F4
S20500050200F3
S20500050300F2
S205000504B33E
S205000505816F
S20500050620CF
S20500050700EE
S20500050813DA
S20500050902EA
S20500050A12D9
S20500050B00EA
S20500050C9356
S20500050D02E6
S20500050E20C7
S20500050F00E6
S205000510E302
S20500051114D0
S2050005125291
S205000513FEE4
S205000514934E
S2050005150ED2
S205000516904F
S20500051701DD
S20500051813CA
S2050005190ECE
S20500051AE0FB
S20500051B01D9
S20500051C6376
S20500051D9A3E
S20500051ED106
S20500051F11C5
S20500052013C2
S20500052102D2
S20500052200D3
S20500052300D2
S20500052413BE
S20500052501CF
S205000526B01F
S20500052700CE
S205000528933A
S20500052900CC
S20500052AF0DB
S20500052B00CA
S20500052C13B6
S20500052D00C8
S20500052E00C7
S20500052F00C6
S20500053013B2
S20500053100C4
S20500053200C3
S20500053300C2
S205000534B30E
S205000535813F
S205000536209F
S20500053700BE
S20500053813AA
S20500053902BA
S20500053A12A9
S20500053B00BA
S20500053C9326
S20500053D02B6
S20500053E2097
S20500053F00B6
S205000540E3D2
S20500054112A2
S2050005425261
S205000543FEB4
S205000544931E
S2050005450EA2
S205000546A00F
S20500054701AD
S205000548139A
S2050005490E9E
S20500054AF0BB
S20500054B01A9
S20500054C6346
S20500054D9216
S20500054ED1D6
S20500054F0F97
S2050005501392
S20500055102A2
S20500055200A3
S20500055300A2
S205000554138E
S205000555019F
S205000556B0EF
S205000557009E
S205000558138A
S205000559009C
S20500055A009B
S20500055B009A
S20500055C9306
S20500055D0098
S20500055ED0C7
S20500055F0096
S205000560B3E2
S2050005618113
S2050005622073
S2050005630092
S205000564137E
S205000565028E
S205000566127D
S205000567008E
S20500056893FA
S205000569028A
S20500056A206B
S20500056B008A
S20500056CE3A6
S20500056D1474
S20500056E5235
S20500056FFE88
S20500057093F2
S2050005710E76
S2050005728003
S2050005730181
S205000574136E
S2050005750E72
S205000576007F
S205000577027C
S205000578631A
S2050005799CE0
S20500057AD1AA
S20500057B0B6F
S20500057C1366
S20500057D0276
S20500057E0077
S20500057F0076
S2050005801362
S2050005810173
S205000582B0C3
S2050005830072
S205000584135E
S2050005850070
S205000586006F
S205000587006E
S20500058893DA
S205000589006C
S20500058AE08B
S20500058B006A
S20500058C1356
S20500058D0068
S20500058E0067
S20500058F0066
S205000590B3B2
S20500059181E3
S2050005922043
S2050005930062
S205000594134E
S205000595025E
S205000596124D
S205000597005E
S20500059893CA
S205000599025A
S20500059A203B
S20500059B005A
S20500059CE376
S20500059D1246
S20500059E5205
S20500059FFE58
S2050005A093C2
S2050005A10E46
S2050005A290C3
S2050005A30151
S2050005A4133E
S2050005A50E42
S2050005A6103F
S2050005A7024C
S2050005A863EA
S2050005A994B8
S2050005AAD17A
S2050005AB0941
S2050005AC1336
S2050005AD0246
S2050005AE0047
S2050005AF0046
S2050005B01332
S2050005B10143
S2050005B2B093
S2050005B30042
S2050005B4132E
S2050005B50040
S2050005B6003F
S2050005B7003E
S2050005B8132A
S2050005B9003C
S2050005BA003B
S2050005BB003A
S2050005BC93A6
S2050005BD0038
S2050005BEF047
S2050005BF0036
S2050005C0B382
S2050005C181B3
S2050005C22013
S2050005C30032
S2050005C4131E
S2050005C5022E
S2050005C6121D
S2050005C7002E
S2050005C8939A
S2050005C9022A
S2050005CA200B
S2050005CB002A
S2050005CCE346
S2050005CD1216
S2050005CE52D5
S2050005CFFE28
S2050005D09392
S2050005D10E16
S2050005D2A083
S2050005D30121
S2050005D4130E
S2050005D50E12
S2050005D620FF
S2050005D7021C
S2050005D863BA
S2050005D99C80
S2050005DAD14A
S2050005DB0515
S2050005DC9386
S2050005DD0018
S2050005DEF027
S2050005DF0016
S2050005E033E2
S2050005E10113
S2050005E21003
S2050005E30012
S2050005E4937E
S2050005E50E02
S2050005E6F01F
S2050005E7000E
S2050005E813FA
S2050005E90EFE
S2050005EA30DB
S2050005EB0208
S2050005EC63A6
S2050005ED12F6
S2050005EED136
S2050005EF0501
S2050005F09372
S2050005F10004
S2050005F20003
S2050005F30200
S2050005F433CE
S2050005F5817F
S2050005F600FF
S2050005F700FE
S2050005F8936A
S2050005F90EEE
S2050005FA00FB
S2050005FB02F8
S2050005FC13E6
S2050005FD0EEA
S2050005FE40B7
S2050005FF02F4
S2050006006391
S20500060118DB
S205000602D121
S20500060303EE
S205000604B33D
S20500060500EF
S20500060600EE
S20500060700ED
S2050006089359
S2050006090EDD
S20500060A00EA
S20500060B00E9
S20500060C13D5
S20500060D0ED9
S20500060E5096
S20500060F02E3
S2050006106381
S2050006119053
S205000612D012
S20500061303DE
S205000614934D
S20500061500DF
S20500061600DE
S20500061701DC
S20500061813C9
S20500061901DA
S20500061AE0FA
S20500061B01D8
S20500061C33A5
S20500061D8057
S20500061E20B6
S20500061F00D5
S2050006209341
S2050006210EC5
S20500062200D2
S20500062300D1
S20500062413BD
S2050006250EC1
S205000626606E
S20500062702CB
S2050006286369
S20500062914B7
S20500062AD0FA
S20500062B01C8
S20500062C6365
S20500062D18AF
S20500062EC006
S20500062F03C2
S205000630F3D1
S20500063120A3
S2050006324082
S205000633F1D0
S205000634932D
S205000635F0CF
S205000636F0CE
S20500063701BC
S2050006389329
S2050006398239
S20500063A10AA
S20500063B00B9
S20500063C9325
S20500063D9225
S20500063EB204
S20500063F00B5
S205000640377D
S2050006414172
S20500064210A2
S20500064300B1
S205000644337D
S20500064501AE
S205000646515D
S20500064700AD
S2050006481399
S20500064901AA
S20500064AC1E9
S20500064BFFAA
S20500064C1395
S20500064D05A2
S20500064E0E98
S20500064F00A5
S2050006508321
S205000651257E
S2050006524161
S20500065300A1
S205000654EFB1
S205000655405F
S205000656504E
S2050006571885
S2050006586F2D
S205000659009B
S20500065AC0DA
S20500065B0297
S20500065CF3A5
S20500065D2077
S20500065E4056
S20500065FF1A4
S2050006609301
S205000661F0A3
S205000662F0A2
S2050006630190
S20500066493FD
S205000665820D
S205000666107E
S205000667008D
S20500066893F9
S20500066992F9
S20500066AB2D8
S20500066B0089
S20500066C3751
S20500066D4146
S20500066E1076
S20500066F0085
S2050006703351
S2050006710182
S2050006725131
S2050006730081
S205000674136D
S205000675017E
S205000676C1BD
S205000677FF7E
S2050006781369
S2050006790576
S20500067A0E6C
S20500067B0079
S20500067C83F5
S20500067D2552
S20500067E4135
S20500067F0075
S205000680EF85
S2050006814033
S205000682D0A2
S2050006831160
S2050006846F01
S205000685006F
S205000686402E
S205000687016C
S205000688610B
S2050006896407
S20500068A6406
S20500068B6900
S20500068C2E3A
S20500068D5314
S20500068E0066
S20500068F0065
S2050006900064
S2050006910063
S2050006920062
S2050006930061
S2050006940060
S205000695005F
S205000696005E
S205000697005D
S205000698F369
S205000699203B
S20500069A401A
S20500069BF168
S20500069C93C5
S20500069DF067
S20500069EF066
S20500069F0154
S2050006A093C1
S2050006A182D1
S2050006A21042
S2050006A30051
S2050006A493BD
S2050006A592BD
S2050006A6B29C
S2050006A7004D
S2050006A83715
S2050006A9410A
S2050006AA103A
S2050006AB0049
S2050006AC3315
S2050006AD0146
S2050006AE51F5
S2050006AF0045
S2050006B01331
S2050006B10142
S2050006B2C181
S2050006B3FF42
S2050006B493AD
S2050006B5023D
S2050006B680BE
S2050006B768D5
S2050006B82319
S2050006B92219
S2050006BA51E9
S2050006BB0039
S2050006BC93A5
S2050006BD0037
S2050006BE0036
S2050006BF0035
S2050006C093A1
S2050006C181B2
S2050006C20032
S2050006C30031
S2050006C4939D
S2050006C50E21
S2050006C6002E
S2050006C7002D
S2050006C81319
S2050006C90E1D
S2050006CA200A
S2050006CB0029
S2050006CC63C5
S2050006CD9C8B
S2050006CED155
S2050006CF27FE
S2050006D09391
S2050006D10023
S2050006D21012
S2050006D30021
S2050006D4938D
S2050006D5819E
S2050006D6100E
S2050006D7001D
S2050006D89389
S2050006D90E0D
S2050006DA20FA
S2050006DB0019
S2050006DC1305
S2050006DD0E09
S2050006DE30E6
S2050006DF0015
S2050006E063B1
S2050006E19281
S2050006E2D141
S2050006E327EA
S2050006E4937D
S2050006E5000F
S2050006E630DE
S2050006E7000D
S2050006E89379
S2050006E9818A
S2050006EA709A
S2050006EB0009
S2050006EC9375
S2050006ED0EF9
S2050006EEA066
S2050006EF0005
S2050006F013F1
S2050006F10EF5
S2050006F240C2
S2050006F30001
S2050006F4639D
S2050006F59867
S2050006F6D12D
S2050006F725D8
S2050006F89369
S2050006F900FB
S2050006FA00FA
S2050006FB00F9
S2050006FC9365
S2050006FD8176
S2050006FE00F6
S2050006FF8075
S2050007009360
S2050007010EE4
S20500070200F1
S2050007038070
S20500070413DC
S2050007050EE0
S205000706509D
S20500070700EC
S2050007086388
S2050007099E4C
S20500070AD118
S20500070B23C5
S20500070CB730
S20500070D00E6
S20500070E00E5
S20500070F8064
S2050007109350
S2050007118161
S20500071200E1
S20500071300E0
S205000714B728
S2050007150ED0
S20500071600DD
S205000717805C
S20500071813C8
S2050007190ECC
S20500071A6079
S20500071B00D8
S20500071C6374
S20500071D9442
S20500071ED104
S20500071F23B1
S205000720B71C
S20500072100D2
S20500072200D1
S2050007238050
S205000724933C
S205000725814D
S20500072600CD
S205000727804C
S205000728B714
S2050007290EBC
S20500072A00C9
S20500072B8048
S20500072C9334
S20500072D8E38
S20500072E0EB7
S20500072F8044
S20500073013B0
S2050007310EB4
S2050007327051
S20500073300C0
S205000734635C
S2050007359826
S205000736D1EC
S205000737219B
S2050007389328
S20500073900BA
S20500073A00B9
S20500073B00B8
S20500073C9324
S20500073D8135
S20500073EF0C5
S20500073F7F35
S2050007409320
S2050007410EA4
S205000742F0C1
S2050007437F31
S205000744139C
S2050007450EA0
S205000746802D
S20500074700AC
S2050007486348
S2050007499E0C
S20500074AD1D8
S20500074B1F89
S20500074CB7F0
S20500074D00A6
S20500074E00A5
S20500074F8024
S2050007509310
S2050007518022
S205000752F0B1
S205000753FFA1
S205000754930C
S205000755811D
S205000756009D
S205000757009C
S205000758B7E4
S2050007590E8C
S20500075A0099
S20500075B8018
S20500075C9304
S20500075D8E08
S20500075EFE97
S20500075FFF95
S2050007601380
S2050007610E84
S2050007629001
S2050007630090
S205000764632C
S20500076590FE
S205000766D1BC
S2050007671F6D
S205000768B7D4
S205000769008A
S20500076A0089
S20500076B8008
S20500076C93F4
S20500076D8006
S20500076EF095
S20500076FFF85
S20500077093F0
S2050007718101
S205000772F091
S2050007737F01
S205000774B7C8
S2050007750E70
S205000776007D
S20500077780FC
S20500077893E8
S2050007798EEC
S20500077AEE8B
S20500077B7FF9
S20500077C1364
S20500077D0E68
S20500077EA0D5
S20500077F0074
S2050007806310
S20500078192E0
S205000782D1A0
S2050007831D53
S205000784B7B8
S205000785006E
S205000786006D
S20500078780EC
S20500078893D8
S20500078981E9
S20500078AF079
S20500078B7FE9
S20500078CB7B0
S20500078D0E58
S20500078E0065
S20500078F80E4
S20500079093D0
S2050007918ED4
S205000792FE63
S2050007937FE1
S205000794134C
S2050007950E50
S205000796B0AD
S205000797005C
S20500079863F8
S20500079996C4
S20500079AD188
S20500079B1B3D
S20500079CB7A0
S20500079D0056
S20500079E0055
S20500079F80D4
S2050007A093C0
S2050007A180D2
S2050007A2F061
S2050007A3FF51
S2050007A493BC
S2050007A581CD
S2050007A6004D
S2050007A780CC
S2050007A8B794
S2050007A9FE4C
S2050007AAFF4A
S2050007AB7FC9
S2050007AC93B4
S2050007AD8EB8
S2050007AEFE47
S2050007AF7FC5
S2050007B01330
S2050007B10E34
S2050007B2C081
S2050007B30040
S2050007B463DC
S2050007B598A6
S2050007B6D16C
S2050007B71923
S2050007B893A8
S2050007B9003A
S2050007BA0039
S2050007BB0038
S2050007BC93A4
S2050007BD81B5
S2050007BEF045
S2050007BFFF35
S2050007C093A0
S2050007C10E24
S2050007C2F041
S2050007C3FF31
S2050007C4131C
S2050007C50E20
S2050007C6D05D
S2050007C7002C
S2050007C863C8
S2050007C99E8C
S2050007CAD158
S2050007CB1711
S2050007CC9394
S2050007CD0026
S2050007CEF035
S2050007CFFF25
S2050007D09390
S2050007D181A1
S2050007D21011
S2050007D30020
S2050007D4938C
S2050007D50E10
S2050007D6001D
S2050007D7001C
S2050007D81308
S2050007D90E0C
S2050007DAE039
S2050007DB0018
S2050007DC63B4
S2050007DD9482
S2050007DED144
S2050007DF17FD
S2050007E09380
S2050007E10012
S2050007E2F021
S2050007E3FF11
S2050007E4937C
S2050007E5818D
S2050007E6F01D
S2050007E7FF0D
S2050007E89378
S2050007E90EFC
S2050007EAE029
S2050007EBFF09
S2050007EC13F4
S2050007ED0EF8
S2050007EEF015
S2050007EF0004
S2050007F063A0
S2050007F19A68
S2050007F2D130
S2050007F315EB
S2050007F4B748
S2050007F500FE
S2050007F600FD
S2050007F7807C
S2050007F89368
S2050007F9807A
S2050007FAF009
S2050007FBFFF9
S2050007FC9364
S2050007FD8175
S2050007FE10E5
S2050007FF00F4
S205000800B73B
S2050008010EE3
S20500080200F0
S205000803806F
S20500080413DB
S2050008050EDF
S20500080600EC
S20500080701EA
S2050008086387
S2050008099E4B
S20500080AD117
S20500080B13D4
S20500080C9353
S20500080D00E5
S20500080ED014
S20500080F00E3
S205000810934F
S2050008118061
S205000812B030
S20500081300DF
S205000814934B
S2050008150ECF
S205000816805C
S20500081701DA
S20500081813C7
S2050008190ECB
S20500081A10C8
S20500081B01D6
S20500081C6373
S20500081D9441
S20500081ED004
S20500081F13C0
S20500082013BF
S20500082102CF
S20500082200D0
S20500082300CF
S205000824933B
S20500082500CD
S205000826D0FC
S20500082700CB
S2050008289337
S2050008298148
S20500082AB018
S20500082B00C7
S20500082C13B3
S20500082D8342
S20500082E01C3
S20500082F00C3
S20500083013AF
S20500083102BF
S20500083212AE
S20500083300BF
S205000834932B
S20500083502BB
S205000836209C
S20500083700BB
S205000838E3D7
S20500083916A3
S20500083A5266
S20500083BFEB9
S20500083C9323
S20500083D0EA7
S20500083E8034
S20500083F01B2
S205000840139F
S2050008410EA3
S2050008422090
S20500084301AE
S205000844634B
S205000845109D
S205000846D3D9
S205000847119A
S2050008481397
S20500084902A7
S20500084A00A8
S20500084B00A7
S20500084C9313
S20500084D00A5
S20500084ED0D4
S20500084F00A3
S205000850930F
S2050008518120
S205000852A000
S205000853009F
S205000854138B
S205000855009D
S205000856009C
S205000857009B
S2050008581387
S2050008598316
S20500085A0197
S20500085B0097
S20500085C1383
S20500085D0293
S20500085E1282
S20500085F0093
S20500086093FF
S205000861028F
S2050008622070
S205000863008F
S205000864E3AB
S2050008651479
S205000866523A
S205000867FE8D
S20500086893F7
S2050008690E7B
S20500086A7018
S20500086B0186
S20500086C1373
S20500086D0E77
S20500086E3054
S20500086F0182
S205000870631F
S2050008711A67
S205000872D3AD
S2050008730D72
S205000874136B
S205000875027B
S205000876007C
S205000877007B
S20500087893E7
S2050008790079
S20500087AD0A8
S20500087B0077
S20500087C93E3
S20500087D81F4
S20500087E90E4
S20500087F0073
S205000880135F
S2050008810071
S2050008820070
S205000883006F
S205000884135B
S205000885006D
S205000886006C
S205000887006B
S2050008881357
S20500088983E6
S20500088A0167
S20500088B0067
S20500088C1353
S20500088D0263
S20500088E1252
S20500088F0063
S20500089093CF
S205000891025F
S2050008922040
S205000893005F
S205000894E37B
S205000895124B
S205000896520A
S205000897FE5D
S20500089893C7
S2050008990E4B
S20500089A60F8
S20500089B0156
S20500089C1343
S20500089D0E47
S20500089E4014
S20500089F0152
S2050008A063EF
S2050008A1123F
S2050008A2D37D
S2050008A30B44
S2050008A4133B
S2050008A5024B
S2050008A6004C
S2050008A7004B
S2050008A893B7
S2050008A90049
S2050008AAD078
S2050008AB0047
S2050008AC93B3
S2050008AD81C4
S2050008AEB094
S2050008AF0043
S2050008B0132F
S2050008B1023F
S2050008B2122E
S2050008B3003F
S2050008B493AB
S2050008B5023B
S2050008B6201C
S2050008B7003B
S2050008B8E357
S2050008B91821
S2050008BA52E6
S2050008BBFE39
S2050008BC93A3
S2050008BD0E27
S2050008BE80B4
S2050008BF0132
S2050008C0131F
S2050008C10E23
S2050008C250E0
S2050008C3012E
S2050008C463CB
S2050008C5909D
S2050008C6D15B
S2050008C70922
S2050008C81317
S2050008C90227
S2050008CA0028
S2050008CB0027
S2050008CC9393
S2050008CD0025
S2050008CED054
S2050008CF0023
S2050008D0130F
S2050008D10021
S2050008D20020
S2050008D3001F
S2050008D4938B
S2050008D5819C
S2050008D6A07C
S2050008D7001B
S2050008D81307
S2050008D90217
S2050008DA1206
S2050008DB0017
S2050008DC9383
S2050008DD0213
S2050008DE20F4
S2050008DF0013
S2050008E0E32F
S2050008E116FB
S2050008E252BE
S2050008E3FE11
S2050008E4937B
S2050008E50EFF
S2050008E6709C
S2050008E7010A
S2050008E813F7
S2050008E90EFB
S2050008EA60A8
S2050008EB0106
S2050008EC63A3
S2050008ED9C69
S2050008EED133
S2050008EF05FE
S2050008F013EF
S2050008F102FF
S2050008F20000
S2050008F300FF
S2050008F4936B
S2050008F500FD
S2050008F6D02C
S2050008F700FB
S2050008F813E7
S2050008F900F9
S2050008FA00F8
S2050008FB00F7
S2050008FC13E3
S2050008FD00F5
S2050008FE00F4
S2050008FF00F3
S205000900935E
S205000901816F
S205000902905F
S20500090300EE
S20500090413DA
S20500090502EA
S20500090612D9
S20500090700EA
S2050009089356
S20500090902E6
S20500090A20C7
S20500090B00E6
S20500090CE302
S20500090D14D0
S20500090E5291
S20500090FFEE4
S205000910934E
S2050009110ED2
S205000912607F
S20500091301DD
S20500091413CA
S2050009150ECE
S205000916706B
S20500091701D9
S2050009186376
S2050009199642
S20500091AD106
S20500091B03D3
S20500091C9342
S20500091D00D4
S20500091E00D3
S20500091F02D0
S205000920933E
S2050009210EC2
S20500092200CF
S20500092302CC
S20500092413BA
S2050009250EBE
S205000926804B
S20500092701C9
S2050009286366
S2050009299E2A
S20500092AD0F7
S20500092B01C5
S20500092C9332
S20500092D00C4
S20500092E10B3
S20500092F02C0
S20500093013AE
S2050009318040
S205000932209F
S20500093303BB
S205000934932A
S2050009350EAE
S20500093600BB
S20500093700BA
S20500093813A6
S2050009390EAA
S20500093A9027
S20500093B01B5
S20500093C6352
S20500093D14A0
S20500093ED0E3
S20500093F01B1
S205000940634E
S2050009411898
S205000942C0EF
S20500094303AB
S205000944F3BA
S205000945208C
S205000946406B
S205000947F1B9
S2050009489316
S205000949F0B8
S20500094AF0B7
S20500094B01A5
S20500094C9312
S20500094D8222
S20500094E1093
S20500094F00A2
S205000950930E
S205000951920E
S205000952B2ED
S205000953009E
S2050009543766
S205000955415B
S205000956108B
S205000957009A
S2050009583366
S2050009590197
S20500095A5146
S20500095B0096
S20500095C1382
S20500095D0193
S20500095EC1D2
S20500095FFF93
S205000960137E
S205000961058B
S2050009620E81
S205000963008E
S205000964830A
S2050009652567
S205000966414A
S205000967008A
S205000968EF9A
S2050009694048
S20500096A0087
S20500096B671F
S20500096C6F16
S20500096D0084
S20500096EC0C3
S20500096F0280
S205000970F38E
S2050009712060
S205000972403F
S205000973F18D
S20500097493EA
S205000975F08C
S205000976F08B
S2050009770179
S20500097893E6
S20500097982F6
S20500097A1067
S20500097B0076
S20500097C93E2
S20500097D92E2
S20500097EB2C1
S20500097F0072
S205000980373A
S205000981412F
S205000982105F
S205000983006E
S205000984333A
S205000985016B
S205000986511A
S205000987006A
S2050009881356
S2050009890167
S20500098AC1A6
S20500098BFF67
S20500098C1352
S20500098D055F
S20500098E0E55
S20500098F0062
S20500099083DE
S205000991253B
S205000992411E
S205000993005E
S205000994EF6E
S205000995401C
S20500099680DB
S20500099760FA
S2050009986FEA
S2050009990058
S20500099AC097
S20500099B0056
S20500099C73E2
S20500099D75DF
S20500099E62F1
S20500099F2E24
S2050009A053FE
S2050009A10050
S2050009A2004F
S2050009A3004E
S2050009A4F35A
S2050009A5202C
S2050009A6400B
S2050009A7F159
S2050009A893B6
S2050009A9F058
S2050009AAF057
S2050009AB0145
S2050009AC93B2
S2050009AD82C2
S2050009AE1033
S2050009AF0042
S2050009B093AE
S2050009B192AE
S2050009B2B28D
S2050009B3003E
S2050009B43706
S2050009B541FB
S2050009B6102B
S2050009B7003A
S2050009B83306
S2050009B90137
S2050009BA51E6
S2050009BB0036
S2050009BC1322
S2050009BD0133
S2050009BEC172
S2050009BFFF33
S2050009C0B77A
S2050009C1121E
S2050009C2002F
S2050009C3002E
S2050009C4939A
S2050009C582AA
S2050009C6C269
S2050009C79991
S2050009C82306
S2050009C92206
S2050009CA51D6
S2050009CB0026
S2050009CC9392
S2050009CD0024
S2050009CE0023
S2050009CF0022
S2050009D0130E
S2050009D1011F
S2050009D2001F
S2050009D3001E
S2050009D4B36A
S2050009D5819B
S2050009D620FB
S2050009D740DA
S2050009D89386
S2050009D90E0A
S2050009DA0017
S2050009DB0016
S2050009DC1302
S2050009DD0E06
S2050009DE20F3
S2050009DF0012
S2050009E063AE
S2050009E1967A
S2050009E2D13E
S2050009E34BC3
S2050009E4937A
S2050009E5000C
S2050009E610FB
S2050009E7000A
S2050009E813F6
S2050009E90107
S2050009EA10F7
S2050009EB0006
S2050009ECB352
S2050009ED8183
S2050009EE20E3
S2050009EF40C2
S2050009F0936E
S2050009F10EF2
S2050009F200FF
S2050009F300FE
S2050009F413EA
S2050009F50EEE
S2050009F630CB
S2050009F700FA
S2050009F86396
S2050009F99A5E
S2050009FAD126
S2050009FB49AD
S2050009FC9362
S2050009FD00F4
S2050009FE30C3
S2050009FF00F2
S205000A0013DD
S205000A0101EE
S205000A02707E
S205000A0300ED
S205000A04B339
S205000A05816A
S205000A0620CA
S205000A0740A9
S205000A089355
S205000A090ED9
S205000A0AC026
S205000A0BFFE6
S205000A0C13D1
S205000A0D0ED5
S205000A0E40A2
S205000A0F00E1
S205000A10637D
S205000A119E41
S205000A12D10D
S205000A134796
S205000A149349
S205000A1500DB
S205000A1600DA
S205000A1700D9
S205000A1837A1
S205000A198156
S205000A1AFFD7
S205000A1BFFD6
S205000A1CB321
S205000A1D8152
S205000A1E20B2
S205000A1F4091
S205000A20B719
S205000A218E41
S205000A2200CE
S205000A2300CD
S205000A2413B9
S205000A250EBD
S205000A26507A
S205000A2700C9
S205000A286365
S205000A299235
S205000A2AD1F5
S205000A2B477E
S205000A2CB70D
S205000A2D00C3
S205000A2E00C2
S205000A2F8041
S205000A3013AD
S205000A3101BE
S205000A3200BE
S205000A3300BD
S205000A34B309
S205000A35813A
S205000A36209A
S205000A374079
S205000A38B701
S205000A390EA9
S205000A3A00B6
S205000A3B8035
S205000A3C13A1
S205000A3D0EA5
S205000A3E6052
S205000A3F00B1
S205000A40634D
S205000A419619
S205000A42D1DD
S205000A434568
S205000A44B7F5
S205000A4500AB
S205000A4600AA
S205000A478029
S205000A483771
S205000A498126
S205000A4AFFA7
S205000A4BFFA6
S205000A4CB3F1
S205000A4D8122
S205000A4E2082
S205000A4F4061
S205000A50B7E9
S205000A518E11
S205000A52009E
S205000A53801D
S205000A541389
S205000A550E8D
S205000A56702A
S205000A570099
S205000A586335
S205000A599AFD
S205000A5AD1C5
S205000A5B4352
S205000A5C9301
S205000A5D0093
S205000A5E0092
S205000A5F0091
S205000A603759
S205000A61810E
S205000A62008E
S205000A63008D
S205000A641379
S205000A65018A
S205000A66F199
S205000A67FF8A
S205000A68B3D5
S205000A698106
S205000A6A2066
S205000A6B4045
S205000A6CB7CD
S205000A6D8EF5
S205000A6EFF83
S205000A6FFF82
S205000A7093ED
S205000A718EF1
S205000A721E60
S205000A73007D
S205000A741369
S205000A750E6D
S205000A7680FA
S205000A770079
S205000A786315
S205000A799ADD
S205000A7AD1A5
S205000A7B4134
S205000A7CB7BD
S205000A7D0073
S205000A7E0072
S205000A7F80F1
S205000A8093DD
S205000A8180EF
S205000A82F07E
S205000A83FF6E
S205000A841359
S205000A85016A
S205000A86006A
S205000A870069
S205000A88B3B5
S205000A8981E6
S205000A8A2046
S205000A8B4025
S205000A8CB7AD
S205000A8D0E55
S205000A8E0062
S205000A8F80E1
S205000A9093CD
S205000A918ED1
S205000A92FE60
S205000A93FF5E
S205000A941349
S205000A950E4D
S205000A9690CA
S205000A970059
S205000A9863F5
S205000A999ABD
S205000A9AD185
S205000A9B3F16
S205000A9CB79D
S205000A9D0053
S205000A9E0052
S205000A9F80D1
S205000AA093BD
S205000AA180CF
S205000AA2F05E
S205000AA3FF4E
S205000AA43715
S205000AA581CA
S205000AA6004A
S205000AA70049
S205000AA81335
S205000AA90146
S205000AAAF155
S205000AABFF46
S205000AACB391
S205000AAD81C2
S205000AAE2022
S205000AAF4001
S205000AB0B789
S205000AB18EB1
S205000AB2FF3F
S205000AB37FBE
S205000AB41329
S205000AB50E2D
S205000AB6A09A
S205000AB70039
S205000AB863D5
S205000AB99A9D
S205000ABAD165
S205000ABB3DF8
S205000ABCB77D
S205000ABD0033
S205000ABE0032
S205000ABF80B1
S205000AC037F9
S205000AC181AE
S205000AC2002E
S205000AC3002D
S205000AC41319
S205000AC5012A
S205000AC6F139
S205000AC7FF2A
S205000AC8B375
S205000AC981A6
S205000ACA2006
S205000ACB40E5
S205000ACCB76D
S205000ACD8E95
S205000ACEFF23
S205000ACF7FA2
S205000AD0938D
S205000AD18E91
S205000AD21E00
S205000AD3001D
S205000AD41309
S205000AD50E0D
S205000AD6B06A
S205000AD70019
S205000AD863B5
S205000AD99A7D
S205000ADAD145
S205000ADB3BDA
S205000ADCB75D
S205000ADD0013
S205000ADE0012
S205000ADF8091
S205000AE0937D
S205000AE1808F
S205000AE2F01E
S205000AE3FF0E
S205000AE437D5
S205000AE5818A
S205000AE6FF0B
S205000AE7FF0A
S205000AE8B355
S205000AE98186
S205000AEA20E6
S205000AEB40C5
S205000AECB74D
S205000AED8E75
S205000AEE0002
S205000AEF8081
S205000AF0936D
S205000AF18E71
S205000AF2FE00
S205000AF3FFFE
S205000AF413E9
S205000AF50EED
S205000AF6C03A
S205000AF700F9
S205000AF86395
S205000AF99A5D
S205000AFAD125
S205000AFB39BC
S205000AFC9361
S205000AFD00F3
S205000AFE00F2
S205000AFF00F1
S205000B0013DC
S205000B0101ED
S205000B02F0FD
S205000B03FFED
S205000B04B338
S205000B058169
S205000B0620C9
S205000B0740A8
S205000B089354
S205000B090ED8
S205000B0A10D5
S205000B0B00E4
S205000B0C13D0
S205000B0D0ED4
S205000B0ED011
S205000B0F00E0
S205000B10637C
S205000B119E40
S205000B12D10C
S205000B1337A5
S205000B149348
S205000B1500DA
S205000B16F0E9
S205000B17FFD9
S205000B1813C4
S205000B1901D5
S205000B1A10C5
S205000B1B00D4
S205000B1CB320
S205000B1D8151
S205000B1E20B1
S205000B1F4090
S205000B20933C
S205000B210EC0
S205000B22E0ED
S205000B23FFCD
S205000B2413B8
S205000B250EBC
S205000B26E0E9
S205000B2700C8
S205000B286364
S205000B299234
S205000B2AD1F4
S205000B2B378D
S205000B2C9330
S205000B2D00C2
S205000B2EF0D1
S205000B2FFFC1
S205000B3013AC
S205000B3101BD
S205000B32F0CD
S205000B33FFBD
S205000B34B308
S205000B358139
S205000B362099
S205000B374078
S205000B389324
S205000B390EA8
S205000B3A00B5
S205000B3B00B4
S205000B3C13A0
S205000B3D0EA4
S205000B3EF0C1
S205000B3F00B0
S205000B40634C
S205000B419618
S205000B42D1DC
S205000B433577
S205000B449318
S205000B4500AA
S205000B46D0D9
S205000B4700A8
S205000B481394
S205000B4901A5
S205000B4AB0F5
S205000B4B00A4
S205000B4CB3F0
S205000B4D8022
S205000B4E2081
S205000B4F4060
S205000B50930C
S205000B510E90
S205000B52207D
S205000B53009C
S205000B541388
S205000B550E8C
S205000B560099
S205000B570197
S205000B586334
S205000B599AFC
S205000B5AD0C5
S205000B5B3361
S205000B5C9300
S205000B5D0092
S205000B5EE0B1
S205000B5F0090
S205000B60137C
S205000B61018D
S205000B62B0DD
S205000B63008C
S205000B643358
S205000B658109
S205000B662069
S205000B674048
S205000B6893F4
S205000B690E78
S205000B6A3055
S205000B6B0084
S205000B6C1370
S205000B6D0E74
S205000B6E1071
S205000B6F017F
S205000B70631C
S205000B711E60
S205000B72D1AC
S205000B73314B
S205000B7493E8
S205000B75007A
S205000B76D0A9
S205000B770078
S205000B78B3C4
S205000B7980F6
S205000B7A1065
S205000B7B4034
S205000B7C93E0
S205000B7D0E64
S205000B7E0071
S205000B7F0070
S205000B80135C
S205000B810E60
S205000B82204D
S205000B83016B
S205000B846308
S205000B8594D6
S205000B86D099
S205000B873137
S205000B881354
S205000B890264
S205000B8A0065
S205000B8B0064
S205000B8C93D0
S205000B8D0062
S205000B8ED091
S205000B8F0060
S205000B90134C
S205000B91015D
S205000B92B0AD
S205000B93005C
S205000B94B3A8
S205000B9581D9
S205000B962039
S205000B974018
S205000B981344
S205000B9983D3
S205000B9A0154
S205000B9B0054
S205000B9C1340
S205000B9D0250
S205000B9E123F
S205000B9F0050
S205000BA093BC
S205000BA1024C
S205000BA2202D
S205000BA3004C
S205000BA4E368
S205000BA51436
S205000BA652F7
S205000BA7FE4A
S205000BA893B4
S205000BA90E38
S205000BAA2025
S205000BAB0044
S205000BAC1330
S205000BAD0E34
S205000BAE3011
S205000BAF013F
S205000BB063DC
S205000BB11E20
S205000BB2D36A
S205000BB32D0F
S205000BB41328
S205000BB50238
S205000BB60039
S205000BB70038
S205000BB893A4
S205000BB90036
S205000BBAE055
S205000BBB0034
S205000BBC1320
S205000BBD0131
S205000BBEB081
S205000BBF0030
S205000BC0B37C
S205000BC181AD
S205000BC2200D
S205000BC340EC
S205000BC41318
S205000BC5002A
S205000BC60029
S205000BC70028
S205000BC81314
S205000BC983A3
S205000BCA0124
S205000BCB0024
S205000BCC1310
S205000BCD0220
S205000BCE120F
S205000BCF0020
S205000BD0938C
S205000BD1021C
S205000BD220FD
S205000BD3001C
S205000BD4E338
S205000BD51208
S205000BD652C7
S205000BD7FE1A
S205000BD89384
S205000BD90E08
S205000BDA30E5
S205000BDB0014
S205000BDC1300
S205000BDD0E04
S205000BDE40D1
S205000BDF010F
S205000BE063AC
S205000BE116F8
S205000BE2D33A
S205000BE32BE1
S205000BE413F8
S205000BE50208
S205000BE60009
S205000BE70008
S205000BE89374
S205000BE90006
S205000BEAF015
S205000BEB0004
S205000BEC13F0
S205000BED0101
S205000BEEB051
S205000BEF0000
S205000BF0B34C
S205000BF1817D
S205000BF220DD
S205000BF340BC
S205000BF413E8
S205000BF500FA
S205000BF600F9
S205000BF700F8
S205000BF813E4
S205000BF900F6
S205000BFA00F5
S205000BFB00F4
S205000BFC13E0
S205000BFD836F
S205000BFE01F0
S205000BFF00F0
S205000C0013DB
S205000C0102EB
S205000C0212DA
S205000C0300EB
S205000C049357
S205000C0502E7
S205000C0620C8
S205000C0700E7
S205000C08E303
S205000C0910D5
S205000C0A5292
S205000C0BFEE5
S205000C0C934F
S205000C0D0ED3
S205000C0E40A0
S205000C0F00DF
S205000C1013CB
S205000C110ECF
S205000C12508C
S205000C1301DA
S205000C146377
S205000C151CBD
S205000C16D305
S205000C1727B0
S205000C1813C3
S205000C1902D3
S205000C1A00D4
S205000C1B00D3
S205000C1C933F
S205000C1D00D1
S205000C1ED000
S205000C1F00CF
S205000C2013BB
S205000C2101CC
S205000C22B01C
S205000C2300CB
S205000C24B317
S205000C258148
S205000C2620A8
S205000C274087
S205000C2813B3
S205000C2902C3
S205000C2A12B2
S205000C2B00C3
S205000C2C932F
S205000C2D02BF
S205000C2E20A0
S205000C2F00BF
S205000C30E3DB
S205000C3116A7
S205000C32526A
S205000C33FEBD
S205000C349327
S205000C350EAB
S205000C362098
S205000C3700B7
S205000C3813A3
S205000C390EA7
S205000C3A6054
S205000C3B01B2
S205000C3C634F
S205000C3D9819
S205000C3ED1DF
S205000C3F258A
S205000C40139B
S205000C4102AB
S205000C4200AC
S205000C4300AB
S205000C449317
S205000C4500A9
S205000C46E0C8
S205000C4700A7
S205000C481393
S205000C4901A4
S205000C4AB0F4
S205000C4B00A3
S205000C4C138F
S205000C4D00A1
S205000C4E00A0
S205000C4F009F
S205000C50B3EB
S205000C51811C
S205000C52207C
S205000C53405B
S205000C541387
S205000C550297
S205000C561286
S205000C570097
S205000C589303
S205000C590293
S205000C5A2074
S205000C5B0093
S205000C5CE3AF
S205000C5D147D
S205000C5E523E
S205000C5FFE91
S205000C6093FB
S205000C610E7F
S205000C62305C
S205000C63008B
S205000C641377
S205000C650E7B
S205000C667018
S205000C670186
S205000C686323
S205000C6992F3
S205000C6AD1B3
S205000C6B2360
S205000C6C136F
S205000C6D027F
S205000C6E0080
S205000C6F007F
S205000C7093EB
S205000C71007D
S205000C72F08C
S205000C73007B
S205000C741367
S205000C750178
S205000C76B0C8
S205000C770077
S205000C781363
S205000C790075
S205000C7A0074
S205000C7B0073
S205000C7C135F
S205000C7D0071
S205000C7E0070
S205000C7F006F
S205000C80B3BB
S205000C8181EC
S205000C82204C
S205000C83402B
S205000C841357
S205000C850267
S205000C861256
S205000C870067
S205000C8893D3
S205000C890263
S205000C8A2044
S205000C8B0063
S205000C8CE37F
S205000C8D124F
S205000C8E520E
S205000C8FFE61
S205000C9093CB
S205000C910E4F
S205000C92401C
S205000C93005B
S205000C941347
S205000C950E4B
S205000C9680D8
S205000C970156
S205000C9863F3
S205000C999ABB
S205000C9AD183
S205000C9B1F34
S205000C9C133F
S205000C9D024F
S205000C9E0050
S205000C9F004F
S205000CA093BB
S205000CA1004D
S205000CA2D07C
S205000CA3004B
S205000CA41337
S205000CA50049
S205000CA60048
S205000CA70047
S205000CA81333
S205000CA90144
S205000CAAB094
S205000CAB0043
S205000CACB38F
S205000CAD81C0
S205000CAE2020
S205000CAF40FF
S205000CB0132B
S205000CB1023B
S205000CB2122A
S205000CB3003B
S205000CB493A7
S205000CB50237
S205000CB62018
S205000CB70037
S205000CB8E353
S205000CB91421
S205000CBA52E2
S205000CBBFE35
S205000CBC939F
S205000CBD0E23
S205000CBE2010
S205000CBF002F
S205000CC0131B
S205000CC10E1F
S205000CC2909C
S205000CC3012A
S205000CC463C7
S205000CC59495
S205000CC6D157
S205000CC71D0A
S205000CC81313
S205000CC90223
S205000CCA0024
S205000CCB0023
S205000CCC938F
S205000CCD0021
S205000CCEE040
S205000CCF001F
S205000CD0130B
S205000CD1001D
S205000CD2001C
S205000CD3001B
S205000CD41307
S205000CD50118
S205000CD6B068
S205000CD70017
S205000CD81303
S205000CD90015
S205000CDA0014
S205000CDB0013
S205000CDCB35F
S205000CDD8190
S205000CDE20F0
S205000CDF40CF
S205000CE013FB
S205000CE1020B
S205000CE212FA
S205000CE3000B
S205000CE49377
S205000CE50207
S205000CE620E8
S205000CE70007
S205000CE8E323
S205000CE912F3
S205000CEA52B2
S205000CEBFE05
S205000CEC936F
S205000CED0EF3
S205000CEE30D0
S205000CEF00FF
S205000CF013EB
S205000CF10EEF
S205000CF2A05C
S205000CF301FA
S205000CF46397
S205000CF59C5D
S205000CF6D127
S205000CF719DE
S205000CF813E3
S205000CF902F3
S205000CFA00F4
S205000CFB00F3
S205000CFC935F
S205000CFD00F1
S205000CFEF000
S205000CFF00EF
S205000D0013DA
S205000D0100EC
S205000D0200EB
S205000D0300EA
S205000D0413D6
S205000D0500E8
S205000D0600E7
S205000D0700E6
S205000D0813D2
S205000D0901E3
S205000D0AB033
S205000D0B00E2
S205000D0CB32E
S205000D0D815F
S205000D0E20BF
S205000D0F409E
S205000D1013CA
S205000D1102DA
S205000D1212C9
S205000D1300DA
S205000D149346
S205000D1502D6
S205000D1620B7
S205000D1700D6
S205000D18E3F2
S205000D1912C2
S205000D1A5281
S205000D1BFED4
S205000D1C933E
S205000D1D0EC2
S205000D1E408F
S205000D1F00CE
S205000D2013BA
S205000D210EBE
S205000D22B01B
S205000D2301C9
S205000D246366
S205000D259434
S205000D26D1F6
S205000D2717AF
S205000D2813B2
S205000D2902C2
S205000D2A00C3
S205000D2B00C2
S205000D2C13AE
S205000D2D01BF
S205000D2EB00F
S205000D2F00BE
S205000D30932A
S205000D3100BC
S205000D32D0EB
S205000D3300BA
S205000D34B306
S205000D358137
S205000D362097
S205000D374076
S205000D3813A2
S205000D3902B2
S205000D3A12A1
S205000D3B00B2
S205000D3C931E
S205000D3D02AE
S205000D3E208F
S205000D3F00AE
S205000D40E3CA
S205000D411696
S205000D425259
S205000D43FEAC
S205000D449316
S205000D450E9A
S205000D462087
S205000D4700A6
S205000D481392
S205000D490E96
S205000D4AC0E3
S205000D4B01A1
S205000D4C633E
S205000D4D9010
S205000D4ED1CE
S205000D4F1589
S205000D50138A
S205000D51029A
S205000D52009B
S205000D53009A
S205000D541386
S205000D550197
S205000D56B0E7
S205000D570096
S205000D589302
S205000D590094
S205000D5AE0B3
S205000D5B0092
S205000D5C137E
S205000D5D0090
S205000D5E008F
S205000D5F008E
S205000D60B3DA
S205000D61810B
S205000D62206B
S205000D63404A
S205000D641376
S205000D650286
S205000D661275
S205000D670086
S205000D6893F2
S205000D690282
S205000D6A2063
S205000D6B0082
S205000D6CE39E
S205000D6D146C
S205000D6E522D
S205000D6FFE80
S205000D7093EA
S205000D710E6E
S205000D72304B
S205000D73007A
S205000D741366
S205000D750E6A
S205000D76D0A7
S205000D770175
S205000D786312
S205000D799ADA
S205000D7AD1A2
S205000D7B1161
S205000D7C135E
S205000D7D026E
S205000D7E006F
S205000D7F006E
S205000D80135A
S205000D81016B
S205000D82B0BB
S205000D83006A
S205000D8493D6
S205000D850068
S205000D86F077
S205000D870066
S205000D881352
S205000D890064
S205000D8A0063
S205000D8B0062
S205000D8C134E
S205000D8D0060
S205000D8E005F
S205000D8F005E
S205000D90B3AA
S205000D9181DB
S205000D92203B
S205000D93401A
S205000D941346
S205000D950256
S205000D961245
S205000D970056
S205000D9893C2
S205000D990252
S205000D9A2033
S205000D9B0052
S205000D9CE36E
S205000D9D123E
S205000D9E52FD
S205000D9FFE50
S205000DA093BA
S205000DA10E3E
S205000DA2400B
S205000DA3004A
S205000DA41336
S205000DA50E3A
S205000DA6E067
S205000DA70145
S205000DA863E2
S205000DA992B2
S205000DAAD172
S205000DAB0F33
S205000DAC132E
S205000DAD023E
S205000DAE003F
S205000DAF003E
S205000DB0132A
S205000DB1013B
S205000DB2B08B
S205000DB3003A
S205000DB41326
S205000DB50038
S205000DB60037
S205000DB70036
S205000DB893A2
S205000DB90034
S205000DBAD063
S205000DBB0032
S205000DBCB37E
S205000DBD81AF
S205000DBE200F
S205000DBF40EE
S205000DC0131A
S205000DC1022A
S205000DC21219
S205000DC3002A
S205000DC49396
S205000DC50226
S205000DC62007
S205000DC70026
S205000DC8E342
S205000DC91410
S205000DCA52D1
S205000DCBFE24
S205000DCC938E
S205000DCD0E12
S205000DCE20FF
S205000DCF001E
S205000DD0130A
S205000DD10E0E
S205000DD2F02B
S205000DD30119
S205000DD463B6
S205000DD59C7C
S205000DD6D146
S205000DD70B0B
S205000DD81302
S205000DD90212
S205000DDA0013
S205000DDB0012
S205000DDC13FE
S205000DDD010F
S205000DDEB05F
S205000DDF000E
S205000DE013FA
S205000DE1000C
S205000DE2000B
S205000DE3000A
S205000DE49376
S205000DE50008
S205000DE6E027
S205000DE70006
S205000DE813F2
S205000DE90004
S205000DEA0003
S205000DEB0002
S205000DECB34E
S205000DED817F
S205000DEE20DF
S205000DEF40BE
S205000DF013EA
S205000DF102FA
S205000DF212E9
S205000DF300FA
S205000DF49366
S205000DF502F6
S205000DF620D7
S205000DF700F6
S205000DF8E312
S205000DF912E2
S205000DFA52A1
S205000DFBFEF4
S205000DFC935E
S205000DFD0EE2
S205000DFE30BF
S205000DFF00EE
S205000E0013D9
S205000E010EDD
S205000E0200EA
S205000E0302E7
S205000E046385
S205000E059453
S205000E06D115
S205000E0709DC
S205000E0813D1
S205000E0902E1
S205000E0A00E2
S205000E0B00E1
S205000E0C13CD
S205000E0D01DE
S205000E0EB02E
S205000E0F00DD
S205000E1013C9
S205000E1100DB
S205000E1200DA
S205000E1300D9
S205000E1413C5
S205000E1500D7
S205000E1600D6
S205000E1700D5
S205000E189341
S205000E1900D3
S205000E1AF0E2
S205000E1B00D1
S205000E1CB31D
S205000E1D814E
S205000E1E20AE
S205000E1F408D
S205000E2013B9
S205000E2102C9
S205000E2212B8
S205000E2300C9
S205000E249335
S205000E2502C5
S205000E2620A6
S205000E2700C5
S205000E28E3E1
S205000E2912B1
S205000E2A5270
S205000E2BFEC3
S205000E2C932D
S205000E2D0EB1
S205000E2E407E
S205000E2F00BD
S205000E3013A9
S205000E310EAD
S205000E3210AA
S205000E3302B7
S205000E346355
S205000E359C1B
S205000E36D1E5
S205000E3705B0
S205000E389321
S205000E3900B3
S205000E3A10A2
S205000E3BFFB2
S205000E3C337D
S205000E3D01AE
S205000E3E109E
S205000E3F406D
S205000E409319
S205000E410E9D
S205000E42F0BA
S205000E4300A9
S205000E441395
S205000E450E99
S205000E462086
S205000E4702A3
S205000E486341
S205000E491291
S205000E4AD1D1
S205000E4B059C
S205000E4C930D
S205000E4D009F
S205000E4E009E
S205000E4F029B
S205000E503369
S205000E51811A
S205000E52009A
S205000E534059
S205000E549305
S205000E550E89
S205000E560096
S205000E570293
S205000E581381
S205000E590E85
S205000E5A3062
S205000E5B028F
S205000E5C632D
S205000E5D1877
S205000E5ED1BD
S205000E5F038A
S205000E60B3D9
S205000E61008B
S205000E62008A
S205000E634049
S205000E6493F5
S205000E650E79
S205000E660086
S205000E670085
S205000E681371
S205000E690E75
S205000E6A4042
S205000E6B027F
S205000E6C631D
S205000E6D90EF
S205000E6ED0AE
S205000E6F037A
S205000E7093E9
S205000E71007B
S205000E72007A
S205000E730178
S205000E741365
S205000E750176
S205000E76E096
S205000E770174
S205000E783341
S205000E7980F3
S205000E7A2052
S205000E7B4031
S205000E7C93DD
S205000E7D0E61
S205000E7E006E
S205000E7F006D
S205000E801359
S205000E810E5D
S205000E82501A
S205000E830267
S205000E846305
S205000E851453
S205000E86D096
S205000E870164
S205000E886301
S205000E89184B
S205000E8AC0A2
S205000E8B035E
S205000E8CF36D
S205000E8D203F
S205000E8E401E
S205000E8FF16C
S205000E9093C9
S205000E91F06B
S205000E92F06A
S205000E930158
S205000E9493C5
S205000E9582D5
S205000E961046
S205000E970055
S205000E9893C1
S205000E9992C1
S205000E9AB2A0
S205000E9B0051
S205000E9C3719
S205000E9D410E
S205000E9E103E
S205000E9F004D
S205000EA03319
S205000EA1014A
S205000EA251F9
S205000EA30049
S205000EA41335
S205000EA50146
S205000EA6C185
S205000EA7FF46
S205000EA81331
S205000EA9053E
S205000EAA0E34
S205000EAB0041
S205000EAC83BD
S205000EAD251A
S205000EAE41FD
S205000EAF003D
S205000EB0EF4D
S205000EB140FB
S205000EB280BA
S205000EB31227
S205000EB46FC9
S205000EB50037
S205000EB6C076
S205000EB70233
S205000EB8F341
S205000EB92013
S205000EBA40F2
S205000EBBF140
S205000EBC939D
S205000EBDF03F
S205000EBEF03E
S205000EBF012C
S205000EC09399
S205000EC182A9
S205000EC2101A
S205000EC30029
S205000EC49395
S205000EC59295
S205000EC6B274
S205000EC70025
S205000EC837ED
S205000EC941E2
S205000ECA1012
S205000ECB0021
S205000ECC33ED
S205000ECD011E
S205000ECE51CD
S205000ECF001D
S205000ED01309
S205000ED1011A
S205000ED2C159
S205000ED3FF1A
S205000ED41305
S205000ED50512
S205000ED60E08
S205000ED70015
S205000ED88391
S205000ED925EE
S205000EDA41D1
S205000EDB0011
S205000EDCEF21
S205000EDD40CF
S205000EDE000E
S205000EDF0C01
S205000EE06F9D
S205000EE1000B
S205000EE240CA
S205000EE30108
S205000EE461A7
S205000EE56E99
S205000EE664A2
S205000EE72ED7
S205000EE853B1
S205000EE90003
S205000EEA0002
S205000EEB0001
S205000EEC0000
S205000EED00FF
S205000EEE00FE
S205000EEF00FD
S205000EF000FC
S205000EF100FB
S205000EF200FA
S205000EF300F9
S205000EF4F305
S205000EF520D7
S205000EF640B6
S205000EF7F104
S205000EF89361
S205000EF9F003
S205000EFAF002
S205000EFB01F0
S205000EFC935D
S205000EFD826D
S205000EFE10DE
S205000EFF00ED
S205000F009358
S205000F019258
S205000F02B237
S205000F0300E8
S205000F0437B0
S205000F0541A5
S205000F0610D5
S205000F0700E4
S205000F0833B0
S205000F0901E1
S205000F0A5190
S205000F0B00E0
S205000F0C13CC
S205000F0D01DD
S205000F0EC11C
S205000F0FFFDD
S205000F10B724
S205000F1112C8
S205000F1200D9
S205000F1300D8
S205000F149344
S205000F158254
S205000F164293
S205000F17EEE6
S205000F1823B0
S205000F1922B0
S205000F1A5180
S205000F1B00D0
S205000F1CB718
S205000F1D00CE
S205000F1E01CC
S205000F1FFFCD
S205000F209338
S205000F21804A
S205000F2200C9
S205000F23F0D8
S205000F243790
S205000F2511B5
S205000F260FB6
S205000F270FB5
S205000F2813B0
S205000F2901C1
S205000F2AF1D0
S205000F2BF0D0
S205000F2CB30C
S205000F2DF1CD
S205000F2E209D
S205000F2F00BC
S205000F30B704
S205000F311E9C
S205000F3200B9
S205000F330FA9
S205000F349324
S205000F358E28
S205000F360EA7
S205000F37F0C4
S205000F3813A0
S205000F390EA4
S205000F3A2091
S205000F3B00B0
S205000F3C634C
S205000F3D9C12
S205000F3ED1DC
S205000F3F4963
S205000F40B7F4
S205000F41109A
S205000F42F0B9
S205000F430F99
S205000F449314
S205000F458026
S205000F4600A5
S205000F47FFA5
S205000F48376C
S205000F49F1B1
S205000F4AF0B1
S205000F4BF0B0
S205000F4C138C
S205000F4D019D
S205000F4E019C
S205000F4F0F8D
S205000F50B3E8
S205000F51F1A9
S205000F522079
S205000F530098
S205000F54B7E0
S205000F550E88
S205000F56F0A5
S205000F570094
S205000F589300
S205000F598E04
S205000F5A0E83
S205000F5B0F81
S205000F5C137C
S205000F5D0E80
S205000F5E305D
S205000F5F008C
S205000F606328
S205000F619AF0
S205000F62D1B8
S205000F634741
S205000F64B7D0
S205000F650086
S205000F66FF86
S205000F670084
S205000F6893F0
S205000F698002
S205000F6AF091
S205000F6B0F71
S205000F6C3748
S205000F6D116D
S205000F6E0F6E
S205000F6F0F6D
S205000F701368
S205000F710179
S205000F72F188
S205000F73F088
S205000F74B3C4
S205000F75F185
S205000F762055
S205000F770074
S205000F78B7BC
S205000F790E64
S205000F7A0F62
S205000F7B0070
S205000F7C93DC
S205000F7D8EE0
S205000F7EFE6F
S205000F7F006C
S205000F801358
S205000F810E5C
S205000F824029
S205000F830068
S205000F846304
S205000F8598CE
S205000F86D194
S205000F87451F
S205000F88B7AC
S205000F89F072
S205000F8A0F52
S205000F8BF070
S205000F8C93CC
S205000F8D80DE
S205000F8EF06D
S205000F8F005C
S205000F903724
S205000F91F169
S205000F92F069
S205000F93F068
S205000F941344
S205000F950155
S205000F960154
S205000F970F45
S205000F98B3A0
S205000F99F161
S205000F9A2031
S205000F9B0050
S205000F9CB798
S205000F9DFE50
S205000F9E004D
S205000F9FF05C
S205000FA01338
S205000FA10E3C
S205000FA250F9
S205000FA30048
S205000FA463E4
S205000FA598AE
S205000FA6D174
S205000FA74301
S205000FA8B78C
S205000FA90042
S205000FAA0140
S205000FABFF41
S205000FAC93AC
S205000FAD80BE
S205000FAE003D
S205000FAFF04C
S205000FB03704
S205000FB11129
S205000FB20F2A
S205000FB30F29
S205000FB41324
S205000FB50135
S205000FB6F144
S205000FB7F044
S205000FB8B380
S205000FB9F042
S205000FBA2011
S205000FBB0030
S205000FBCB778
S205000FBD1E10
S205000FBE002D
S205000FBF0F1D
S205000FC09398
S205000FC18E9C
S205000FC20E1B
S205000FC3F038
S205000FC41314
S205000FC50E18
S205000FC660C5
S205000FC70024
S205000FC863C0
S205000FC9968C
S205000FCAD051
S205000FCB41DF
S205000FCCB768
S205000FCD100E
S205000FCEF02D
S205000FCF0F0D
S205000FD09388
S205000FD1809A
S205000FD20019
S205000FD3FF19
S205000FD437E0
S205000FD5F125
S205000FD6F025
S205000FD7F024
S205000FD81300
S205000FD90111
S205000FDA0110
S205000FDB0F01
S205000FDC33DC
S205000FDDF11D
S205000FDE20ED
S205000FDF000C
S205000FE0B754
S205000FE10EFC
S205000FE2F019
S205000FE30008
S205000FE49374
S205000FE58E78
S205000FE60EF7
S205000FE70FF5
S205000FE813F0
S205000FE90EF4
S205000FEA7091
S205000FEB0000
S205000FEC639C
S205000FED14EA
S205000FEED12C
S205000FEF3FBD
S205000FF0B744
S205000FF100FA
S205000FF201F8
S205000FF3FFF9
S205000FF49364
S205000FF58076
S205000FF600F5
S205000FF7F004
S205000FF8B340
S205000FF9F002
S205000FFA10E1
S205000FFB00F0
S205000FFCB738
S205000FFD0EE0
S205000FFE01EC
S205000FFFFFED
S2050010009357
S2050010018E5B
S2050010020EDA
S205001003F0F7
S20500100413D3
S2050010050ED7
S2050010068064
S20500100700E3
S205001008637F
S205001009964B
S20500100AD010
S20500100B3DA2
S20500100C13CB
S20500100D02DB
S20500100E00DC
S20500100F00DB
S205001010B723
S20500101100D9
S20500101201D7
S205001013FFD8
S2050010149343
S2050010158055
S20500101600D4
S205001017F0E3
S205001018379B
S20500101911C0
S20500101A0FC1
S20500101B0FC0
S20500101C13BB
S20500101D01CC
S20500101EF1DB
S20500101FF0DB
S205001020B317
S205001021F1D8
S20500102220A8
S20500102300C7
S20500102413B3
S2050010258342
S20500102601C3
S20500102700C3
S20500102813AF
S20500102902BF
S20500102A12AE
S20500102B00BF
S20500102C932B
S20500102D02BB
S20500102E209C
S20500102F00BB
S205001030E3D7
S20500103110A9
S2050010325266
S205001033FEB9
S205001034B7FF
S2050010351E97
S20500103600B4
S2050010370FA4
S205001038931F
S2050010398E23
S20500103A0EA2
S20500103BF0BF
S20500103C139B
S20500103D0E9F
S20500103E901C
S20500103F00AB
S2050010406347
S2050010411A8F
S205001042D3D5
S205001043396E
S2050010441393
S20500104502A3
S20500104600A4
S20500104700A3
S205001048B7EB
S2050010491091
S20500104AF0B0
S20500104B0F90
S20500104C930B
S20500104D801D
S20500104E009C
S20500104FFF9C
S2050010503763
S205001051F1A8
S205001052F0A8
S205001053F0A7
S2050010541383
S2050010550194
S2050010560193
S2050010570F84
S205001058B3DF
S205001059F1A0
S20500105A2070
S20500105B008F
S20500105C137B
S20500105D008D
S20500105E008C
S20500105F008B
S2050010601377
S2050010618306
S2050010620187
S2050010630087
S2050010641373
S2050010650283
S2050010661272
S2050010670083
S20500106893EF
S205001069027F
S20500106A2060
S20500106B007F
S20500106CE39B
S20500106D1E5F
S20500106E522A
S20500106FFC7F
S205001070B7C3
S2050010710E6B
S205001072F088
S2050010730077
S20500107493E3
S2050010758EE7
S2050010760E66
S2050010770F64
S205001078135F
S2050010790E63
S20500107AA0D0
S20500107B006F
S20500107C630B
S20500107D1C51
S20500107ED399
S20500107F3536
S2050010801357
S2050010810267
S2050010820068
S2050010830067
S205001084B7AF
S2050010850065
S205001086FF65
S2050010870063
S20500108893CF
S20500108980E1
S20500108AF070
S20500108B0F50
S20500108C3727
S20500108D114C
S20500108E0F4D
S20500108F0F4C
S2050010901347
S2050010910158
S205001092F167
S205001093F067
S205001094B3A3
S205001095F164
S2050010962034
S2050010970053
S205001098133F
S2050010990051
S20500109A0050
S20500109B004F
S20500109C133B
S20500109D004D
S20500109E004C
S20500109F004B
S2050010A01337
S2050010A183C6
S2050010A20147
S2050010A30047
S2050010A41333
S2050010A50243
S2050010A61232
S2050010A70043
S2050010A893AF
S2050010A9023F
S2050010AA2020
